:100000000C9446000C9465000C9465000C946500FB
:100010000C9465000C9465000C9465000C946500CC
:100020000C9465000C9465000C9465000C946500BC
:100030000C9465000C9465000C9465000C946500AC
:100040000C946D0C0C9465000C9465000C94650088
:100050000C9465000C9465000C9465000C9465008C
:100060000C9465000C9465000C9465000C9465007C
:100070000C9465000C9465000C9465000C9465006C
:100080000C9465000C9465000C94650011241FBE4F
:10009000CFEFD0E1DEBFCDBF13E0A0E0B1E0ECE1F7
:1000A000F0E200E00BBF02C007900D92AC31B10747
:1000B000D9F719E0ACE1B3E001C01D92A136B10758
:1000C000E1F70E945E040C940C100C940000109256
:1000D000980087E68093990088E180939A008EE0EB
:1000E00080939D000895909398008093990088E1F3
:1000F00080939A008EE080939D00089580919B00EC
:1001000087FFFCCF80919C000895982F80919B00E1
:1001100085FFFCCF90939C000895FC01908199236A
:1001200051F0319680919B0085FFFCCF90939C000D
:1001300090819923B1F70895DF93CF93CDB7DEB7C0
:10014000C456D0400FB6F894DEBF0FBECDBF44EC0E
:1001500059E080919B0087FFFCCF20919C002D30BF
:1001600051F0CA010197F1F780919B0085FFFCCF08
:1001700020939C00EECFCE010196CC59DF4F0FB6F5
:10018000F894DEBF0FBECDBFCF91DF910895DF930E
:10019000CF93CDB7DEB7C456D0400FB6F894DEBFCC
:1001A0000FBECDBF24EC39E04AE280919B0087FF6F
:1001B000FCCF80919C008D3051F0C9010197F1F77F
:1001C00080919B0085FFFCCF40939C00EECFCE0139
:1001D0000196CC59DF4F0FB6F894DEBF0FBECDBFEE
:1001E000CF91DF9108950F931F93DF93CF9300D0AA
:1001F0000F92CDB7DEB79C0119821A821B8200973D
:1002000079F142E08E010F5F1F4FF801E40FF11DFD
:10021000C9016AE070E00E94EF0C8083C9016AE0C6
:1002200070E00E94EF0C9B0141506115710569F768
:10023000F8019E012C5F3F4F908180919B0085FFCC
:10024000FCCF905D90939C003196E217F307A1F7E5
:100250000F900F900F90CF91DF911F910F91089504
:100260008E010F5F1F4FE4CF0895089508950895FC
:100270000895089588E480937000089584EA809337
:1002800074008091740087FFFCCF80ED8093730031
:1002900084E8809374008091740087FFFCCF1092F3
:1002A000730084E8809374008091740087FFFCCF12
:1002B00081E48093730084E88093740080917400DB
:1002C00087FFFCCF89E58093730084E880937400F6
:1002D0008091740087FFFCCF81E18093730084E8F4
:1002E000809374008091740087FFFCCF81E080933D
:1002F000730084E8809374008091740087FFFCCFC2
:1003000080E18093730084E880937400809174008E
:1003100087FFFCCF81E08093730084E880937400B2
:100320008091740087FFFCCF89E08093730084E89C
:10033000809374008091740087FFFCCF84E98093E0
:100340007400089588E4809370000E943E0108952F
:1003500084EA809374008091740087FFFCCF80ED65
:100360008093730084E8809374008091740087FF09
:10037000FCCF1092730084E8809374008091740025
:1003800087FFFCCF84EA809374008091740087FF1C
:10039000FCCF81ED8093730084E88093740080919A
:1003A000740087FFFCCF809173008093220384EC5C
:1003B000809374008091740087FFFCCFE2E2F3E049
:1003C00094EC80917300808390937400809174000A
:1003D00087FFFCCF319683E0E832F80791F78091F0
:1003E0007300808384E8809374008091740087FF99
:1003F000FCCF84E980937400089580912803282F0E
:1004000022952F7030E0A901440F551F440F551F4E
:10041000440F551F220F331F420F531F8F70840F3D
:1004200090E0089580912703282F22952F7030E0C7
:10043000A901440F551F440F551F440F551F220F8C
:10044000331F420F531F8F70840F0895809126032E
:10045000282F22952F7030E0A901440F551F440F1B
:10046000551F440F551F220F331F420F531F8F700C
:10047000840F089580912403282F22952F7030E057
:10048000A901440F551F440F551F440F551F220F3C
:10049000331F420F531F8F70840F089580912303E1
:1004A000282F22952F7030E0A901440F551F440FCB
:1004B000551F440F551F220F331F420F531F8F70BC
:1004C000840F089580912203282F22952F7030E009
:1004D000A901440F551F440F551F440F551F220FEC
:1004E000331F420F531F8F70840F0895282F2295BA
:1004F0002F7030E0A901440F551F440F551F440FC2
:10050000551F220F331F420F531F8F70840F089502
:1005100007C080E060E041E020E030E00E945C073E
:10052000E0E0F1E090819923A1F380919B0085FFA9
:10053000FCCF319690939C00F5CF4F925F926F92D3
:100540007F928F929F92AF92BF92CF92DF92EF9263
:10055000FF920F931F93DF93CF93CDB7DEB7CD57A5
:10056000D0400FB6F894DEBF0FBECDBFE9E0F1E09A
:100570009DE0319680919B0085FFFCCF90939C007D
:1005800090819923B1F7F89487E083BF81E087BF1A
:1005900088EC82BF78940E9462081092980087E6E7
:1005A0008093990088E180939A008EE080939D006B
:1005B0000E94A201FAE1CF2ED12CCC0EDD1E5E01ED
:1005C0000894A11CB11CEBE04E2E512C4C0E5D1E6C
:1005D00070E3672E71E0772E64EC862E69E0962E2C
:1005E0000E94A80140912803842F82958F7090E08B
:1005F0009C01220F331F220F331F220F331F880F3E
:10060000991F280F391F4F70420F40931C034091D0
:100610002703842F82958F7090E09C01220F331F57
:10062000220F331F220F331F880F991F280F391FE6
:100630004F70420F40931D0340912603842F8295F3
:100640008F7090E09C01220F331F220F331F220F67
:10065000331F880F991F280F391F4F70420F409387
:100660001E0340912403842F82958F7090E09C019B
:10067000220F331F220F331F220F331F880F991FA2
:10068000280F391F4F70420F40931F0340912303DF
:10069000842F82958F7090E09C01220F331F220FD0
:1006A000331F220F331F880F991F280F391F4F70D8
:1006B000420F4093200340912203842F82958F7034
:1006C00090E09C01220F331F220F331F220F331F94
:1006D000880F991F280F391F4F70420F4093210335
:1006E000E2E1F1E09DE0319680919B0085FFFCCF37
:1006F00090939C0090819923B1F730E080919B000A
:1007000087FFFCCF20919C002D3079F0C401019728
:10071000F1F780919B0085FFFCCFF601E30FF11DFF
:10072000208320939C003F5FE9CFF601E30FF11D8A
:100730001082C501B6010E942E0D84E291E0B50140
:100740000E94250D8C0189E291E0B5010E94250DE2
:10075000012B19F0009709F046C0EEE2F1E09DE0B0
:10076000319680919B0085FFFCCF90939C009081F7
:100770009923B1F72DB73EB72A5030400FB6F89401
:100780003EBF0FBE2DBFEDB7FEB73196ADB7BEB7BA
:1007900012965C924E9211977382628280911F032F
:1007A00084831582809120038683178280912103A0
:1007B000808711860E94350D9B852DB73EB7265F39
:1007C0003F4F0FB6F8943EBF0FBE2DBF992359F08F
:1007D000F201319680919B0085FFFCCF90939C00A5
:1007E00090819923B1F78FE491E0B5010E94250D26
:1007F0008C0183E591E0B5010E94250D7C018AE51D
:1008000091E0B5010E94250D9C0180E0012B09F4C7
:1008100081E090E0EF2809F491E0892B90E040E03E
:1008200050E0232B11F441E050E0842B952B892BD1
:1008300069F0E1E6F1E09DE0319680919B0085FF53
:10084000FCCF90939C0090819923B1F78BE891E0C5
:10085000B5010E94250D8C0180E991E0B5010E944F
:10086000250D012B11F0009709F5E5E9F1E09DE078
:10087000319680919B0085FFFCCF90939C009081E6
:100880009923B1F78091C007992787FD90950E9421
:10089000F300EBE9F1E095E2319680919B0085FF52
:1008A000FCCF90939C0090819923B1F780E060E0A9
:1008B00041E020E030E00E945C0792CE0F931F934E
:1008C000DF93CF93CDB7DEB7C456D0400FB6F894C0
:1008D000DEBF0FBECDBF1092980087E680939900CF
:1008E00088E180939A008EE080939D00EDE9F1E02D
:1008F00099E0319680919B0085FFFCCF90939C00FE
:1009000090819923B1F7EDEBF1E09DE03196809174
:100910009B0085FFFCCF90939C0090819923B1F7B9
:1009200030E08E010F5F1F4F44EC59E080919B0037
:1009300087FFFCCF20919C002D3079F0CA010197F0
:10094000F1F780919B0085FFFCCFF801E30FF11DCB
:10095000208320939C003F5FE9CFF801E30FF11D56
:10096000108283EF91E0B8010E94250D782FE9EC09
:10097000F1E09DE0319680919B0085FFFCCF909344
:100980009C0090819923B1F730E044EC59E06AE291
:1009900080919B0087FFFCCF20919C002D3079F047
:1009A000CA010197F1F780919B0085FFFCCFF80108
:1009B000E30FF11D208360939C003F5FE9CFF801B6
:1009C000E30FF11D1082772339F083E092E0B80144
:1009D0000E94250D009721F50E94230B8DE992E0DE
:1009E00060E070E04BE257E020E00E942D0988E8CB
:1009F00092E060E070E04BE255E021E00E942D09BA
:100A00000E94A30A80E090E0CC59DF4F0FB6F89423
:100A1000DEBF0FBECDBFCF91DF911F910F91089523
:100A20008BEF91E0B8010E94250D0097A9F2E5ED4A
:100A3000F1E09DE0319680919B0085FFFCCF909383
:100A40009C0090819923B1F7DDCFFA0180839293C6
:100A50001292129212921292129212921292129276
:100A60001292129212921292129212921292129266
:100A70001292129212921292129212921292129256
:100A80006293729312921292129212921292129294
:100A9000129280E882933197CF01089508950895C6
:100AA00008950895089508950895089508958091EA
:100AB0002D07813009F008958091CA078F3FD9F33F
:100AC0008F5F8093CA07089580912D07813009F0C8
:100AD0000895F89480912C078F3F19F08F5F8093D1
:100AE0002C07789408958CEF90E0089508951F9353
:100AF000CF93DF93EC01142F3981E32FF0E0E55E13
:100B0000FD4F2081622F70E0FB01ED5EFD4F4081C3
:100B1000DC01A60FB71F16969C911697E92FF0E0FF
:100B2000E55EFD4F8081E82FF0E0ED5EFD4F5081E6
:100B3000220F220F220F280F852F809589231696CA
:100B40008C93882321F4842F809538233983E22FD6
:100B5000F0E0EE0FFF1FED5BF64F0190F081E02D0E
:100B60001186108617821682812F8095928589239F
:100B70008287882359F48091C407842B8093C4070B
:100B8000FB01EB53F84F8081582B5083822FDF916C
:100B9000CF911F910895CF93DF93EC01A091CB07E4
:100BA000B091CC0717969C938E9316971D968C91B7
:100BB0001D97482F50E01E963C911E97FA01EB536B
:100BC000F84F832F80959081892380838823A9F40F
:100BD0001F962C91922F90958091C4078923809322
:100BE000C407FE01E40FF51F8681832B868389816C
:100BF000822B8983DF91CF9108951F962C91F1CF9D
:100C0000CF93DF93EC01A091CB07B091CC071D9659
:100C10008C911D97FE01E80FF11D1E968C911E9779
:100C20008095968189238683882339F41F969C9129
:100C30001F9790958981892389831A961C921A9708
:100C400017961C921E921697DF91CF910895FC0182
:100C500011821682178208959C018091CA07882309
:100C6000D9F4F894E091C707F091C807309731F0B4
:100C7000848195819093C8078093C70778943097B3
:100C800049F083E0808333832283158214821182AA
:100C900016821782CF010895E0E0F0E0CF010895B9
:100CA0008F3F89F0F894E82FF0E0EE0FFF1FED5B27
:100CB000F64F0190F081E02D309769F08EE3808B44
:100CC00080E078940895F894E091CB07F091CC07F8
:100CD0008089789408958BE0789408951F93CF933A
:100CE000DF93182FF894C091BE07D091BF072097CB
:100CF00009F455C08A819B819093BF078093BE07FA
:100D00007894798368831B871A8619861886188ACF
:100D1000E12FE695E695E695ED87F0E0ED5EFD4F77
:100D200080818F87E12FE770EC87F0E0ED5EFD4F6B
:100D300080818E871F821E82CE010E945605CE01C1
:100D40000E944E05F894E12FF0E0EE0FFF1FED5BDF
:100D5000F64FD183C083E0913407F0913507FB83D0
:100D6000EA831D821C82309711F0D583C483D0930F
:100D70003507C09334078091C4079F85892B8093E2
:100D8000C407ED85F0E0EB53F84F80819E85892BF9
:100D90008083789480E0DF91CF911F9108957894BB
:100DA00086E4DF91CF911F910895F89480912E07EA
:100DB00090912F07A0913007B09131070196A11DA6
:100DC000B11D80932E0790932F07A0933007B09307
:100DD000310778940E945505E8CFF8948091CA07AE
:100DE000882309F03FC080912C078823D9F5E09132
:100DF000C407F0E0E55EFD4F8081E82FF0E0EB53A3
:100E0000F84FE081F0E0E55EFD4F982F990F990FC4
:100E1000990F8081980F909332078091330798172C
:100E200009F1E92FF0E0EE0FFF1FED5BF64F808137
:100E300091819093C3078093C2078091B6079091E8
:100E4000B707A091B807B091B9070196A11DB11DD0
:100E50008093B6079093B707A093B807B093B907EC
:100E60000E94D30B789408959C01009721F1F89487
:100E7000A091CB07B091CC071D96EC911D97F0E0A7
:100E8000EB53F84F1E968C911E9780959081892385
:100E90008083882349F41F969C911F979095809199
:100EA000C40789238093C40719963C932E931897FF
:100EB00078940E94ED0608958F929F92AF92BF9210
:100EC000CF92DF92EF92FF920F931F93CF93DF9316
:100ED000882E162F942E8823C9F01C3300F58BE33F
:100EE000891590F093E0283E3907D8F083E5DF912B
:100EF000CF911F910F91FF90EF90DF90CF90BF9017
:100F0000AF909F908F90089582E5F1CF662329F7E7
:100F1000442329F72115310529F784E5E8CF81E538
:100F2000E6CFB90180E090E022E330E040E050E01D
:100F30000E94D00C6C507E4F8F4F9F4F28EE33E0B5
:100F400040E050E00E94030D59016A01612F70E0FA
:100F500080E090E02CE330E040E050E00E94D00CD4
:100F60007B018C01E90CF11C011D111D682D70E045
:100F700080E090E020E13EE040E050E00E94D00CB4
:100F8000E60EF71E081F191FC801B70122E330E063
:100F900040E050E00E94D00CA60EB71EC81ED91E1D
:100FA000760100271127E7018FEF9FEFA0E0B0E067
:100FB000A822B922CA22DB22C5010E943407EF28E9
:100FC00051F080E090E80E94340780E090E80E94B1
:100FD00034072197B1F780E08ACFDF92EF92FF923A
:100FE0000F931F9380914209882341F484E690E097
:100FF0000E943407809142098823C1F36091BA07A7
:101000007091BB078091BC079091BD0724E630E04A
:1010100040E050E00E94030DC901DA017C018D011E
:1010200054E6D52E10C0A80197010E94030D8D2D06
:10103000821B87FD44C08093C0070E94510582E354
:1010400090E00E943407F89480912E0790912F072A
:10105000A0913007B091310780935D0990935E09AC
:10106000A0935F09B093600960912E0770912F07DC
:10107000809130079091310710922E0710922F0720
:1010800010923007109231077894E114F1040105B1
:10109000110549F61092C0076091BA077091BB071D
:1010A0008091BC079091BD0724E630E040E050E01D
:1010B0000E94030DC901DA017C018D01BECF10929F
:1010C000C007BBCF82E090E00E943407F8941092F2
:1010D0002E0710922F071092300710923107789444
:1010E00082E390E00E943407F89480912E0790915B
:1010F0002F07A0913007B09131078093BA079093E2
:10110000BB07A093BC07B093BD0781E08093420961
:10111000789408950F931F93CF93DF93E82F8091D6
:10112000CA07882309F068C0F894EF3F09F47FC02C
:101130000E2F10E0000F111FF801ED5BF64FC0817C
:10114000D181209709F479C08D85482F50E02E85F4
:101150002095FA01EB53F84F808182238083882306
:1011600009F454C0AE81BF81109749F0FD01E40F2E
:10117000F51F868182238683882309F44FC0198650
:1011800018861A8680912C078F3F19F08F5F809305
:101190002C077894F8948823A9F5CE010E944F0576
:1011A0008091C10781508093C1070D5B164FF801F4
:1011B00011821082AC81BD81109709F445C08A81EB
:1011C0009B8113969C938E931297EA81FB81B58342
:1011D000A4838091BE079091BF079B838A83D0939D
:1011E000BF07C093BE0778940E94ED0680E0DF91B0
:1011F000CF911F910F9108958FE3DF91CF911F91B0
:101200000F910895815080932C07C7CF9F859095AB
:101210008091C40789238093C407A4CF9F859095AC
:1012200011968C911197892311968C93A8CFE091F8
:10123000CB07F091CC07E3857BCF78948CE3DF91EB
:10124000CF911F910F910895EA81FB81158214823D
:10125000F0933507E0933407BCCFAF92BF92CF92A3
:10126000DF92EF92FF920F931F93CF93DF93FC01D6
:10127000122FF894C22FD0E0CC0FDD1FCD5BD64FDC
:1012800088819981892B71F0789418E2812FDF9100
:10129000CF911F910F91FF90EF90DF90CF90BF9073
:1012A000AF90089581E090E0998388837894CF018E
:1012B00020E030E00E942505BC01812F40E050E095
:1012C00020E030E0EE24FF248701CC24DD24AA2492
:1012D000BB240E946E06182F882371F4F894809125
:1012E000C1078F5F8093C107789480912D0781306B
:1012F00069F60E94ED06CACFF89419821882789494
:10130000C5CFFC01F8948181882379F4828193818F
:101310002FEF8F3F920731F0019693838283789469
:1013200080E00895789482E30895CF0160E070E052
:1013300041E00E94770578940E94ED0680E00895D0
:101340000F931F93CF93DF93EC018A018091CA071B
:10135000882309F075C0F8948A819B81009709F071
:1013600064C0A091CB07B091CC071A968C911A97C4
:1013700081601A968C931A9719967C936E9318979E
:101380001796DC93CE9316971D968C911D97482F38
:1013900050E01E963C911E97FA01EB53F84F832FB5
:1013A0008095908189238083882309F451C01F96FA
:1013B0002C91FE01E40FF51F8681832B86838981A2
:1013C000822B898378940E94ED06F894A091CB0734
:1013D000B091CC071A968C911A9780FF43C01D9646
:1013E0008C911D97FE01E80FF11D1E968C911E97A2
:1013F0008095968189238683882339F41F969C9152
:101400001F9790958981892389831A961C921A9730
:1014100017961C921E92169778948AE0F8018083A2
:10142000DF91CF911F910F91089501979B838A833C
:101430007894FA011082DF91CF911F910F91089556
:1014400082E0FA018083DF91CF911F910F9108957F
:101450001F962C91922F90958091C4078923809399
:10146000C407A7CF17961C921E9216977894F8017E
:101470001082DF91CF911F910F91089580912D07D8
:10148000813009F00895F89480912C07882359F051
:10149000815080932C07882321F48091CA078823E8
:1014A00021F0789408957894089578940E94ED0638
:1014B00008950E94520580912D07813009F008950A
:1014C000A0913407B09135071B968C911B978C30F7
:1014D000B1F32091C40741E050E01AC01F968C91EF
:1014E0001F97282B1D96EC911D97F0E0EB53F84FBA
:1014F00080811E969C911E97892B808312960D9059
:10150000BC91A02D78941B968C911B978C30C1F0C8
:10151000F89418968D919C911997009779F30197FB
:1015200019969C938E931897892B41F71A968C9154
:101530001A9783FFD3CF19965C934E931897DECFFB
:101540002093C407089580912D0781110895E0919B
:10155000C407F0E0E55EFD4FA081EA2FF0E0EB5319
:10156000F84FE081F0E0E55EFD4FAA0FAA0FAA0F49
:101570008081A80FA0933207A0933307B0E0AA0F91
:10158000BB1FAD5BB64F8D919C919093C307809329
:10159000C2079093CC078093CB070E949F0B0895BE
:1015A00080912D07813009F00895F8948091CA0741
:1015B000882339F081508093CA07882311F07894EA
:1015C000089580912C078823D1F7E091C407F0E0BB
:1015D000E55EFD4F80818093C907E82FF0E0EB5373
:1015E000F84FE081F0E0E55EFD4F982F990F990FDD
:1015F000990F8081980F9093320780913307981745
:10160000F1F2E92FF0E0EE0FFF1FED5BF64F808166
:1016100091819093C3078093C2078091B607909100
:10162000B707A091B807B091B9070196A11DB11DE8
:101630008093B6079093B707A093B807B093B90704
:101640000E94360CBCCF0E9453051092CA0710921C
:101650002C071092C10710922D071092B607109216
:10166000B7071092B8071092B90710922E07109280
:101670002F0710923007109231071092C407109272
:10168000C5071092C60710923307109232071092C6
:10169000C3071092C2071092CC071092CB0710928A
:1016A000350710923407E3E4F9E01192119229E032
:1016B000ED35F207D1F786E798E0FC013F9791837B
:1016C0008083419629E082349207B9F71092340959
:1016D0001092330985E698E09093BF078093BE0788
:1016E00010924D0885E598E0909352088093510838
:1016F00010925508089690935A088093590840977D
:1017000010925D0810926208109261089093C807C9
:101710008093C70785ED96E060E070E04CE458E008
:101720002CE00E942D098DEE97E060E070E045EB23
:1017300057E02BE00E942D090E94540508950E9455
:10174000500500912D07039500932D07E091C207E6
:10175000F091C307C191CDBFD191DEBF0F910FBFF3
:101760000F910BBFFF91EF91DF91CF91BF91AF919F
:101770009F918F917F916F915F914F913F912F91A9
:101780001F910F91FF90EF90DF90CF90BF90AF909F
:101790009F908F907F906F905F904F903F902F9091
:1017A0001F900F9008950F921F922F923F924F9289
:1017B0005F926F927F928F929F92AF92BF92CF92E1
:1017C000DF92EF92FF920F931F932F933F934F93CC
:1017D0005F936F937F938F939F93AF93BF93CF93B9
:1017E000DF93EF93FF930BB70F930FB70F93E09136
:1017F000CB07F091CC07CDB7C193DEB7D1930E9450
:1018000050050091320700933307E091C207F09131
:10181000C307E093CB07F093CC07C191CDBFD19123
:10182000DEBF0F910FBF0F910BBFFF91EF91DF91C3
:10183000CF91BF91AF919F918F917F916F915F9168
:101840004F913F912F911F910F91FF90EF90DF905B
:10185000CF90BF90AF909F908F907F906F905F9050
:101860004F903F902F901F900F9008950E94500529
:101870000091320700933307E091C207F091C3074C
:10188000E093CB07F093CC07C191CDBFD191DEBFE0
:101890000F910FBF0F910BBFFF91EF91DF91CF9190
:1018A000BF91AF919F918F917F916F915F914F9178
:1018B0003F912F911F910F91FF90EF90DF90CF906C
:1018C000BF90AF909F908F907F906F905F904F9060
:1018D0003F902F901F900F9008950F921F922F927C
:1018E0003F924F925F926F927F928F929F92AF92B0
:1018F000BF92CF92DF92EF92FF920F931F932F939D
:101900003F934F935F936F937F938F939F93AF9387
:10191000BF93CF93DF93EF93FF930BB70F930FB763
:1019200000680F930091CA0703950093CA0701301E
:1019300041F4CDB7DEB7E091CB07F091CC07C1936E
:10194000D19308EC02BFF0E01F2E78940E94590A50
:1019500000000E94D00A0F910FBF0F910BBFFF91A3
:10196000EF91DF91CF91BF91AF919F918F917F9137
:101970006F915F914F913F912F911F910F91FF9028
:10198000EF90DF90CF90BF90AF909F908F907F901F
:101990006F905F904F903F902F901F900F90089501
:1019A000629FD001739FF001829FE00DF11D649F43
:1019B000E00DF11D929FF00D839FF00D749FF00DCF
:1019C000659FF00D9927729FB00DE11DF91F639F70
:1019D000B00DE11DF91FBD01CF0111240895AA1B0F
:1019E000BB1B51E107C0AA1FBB1FA617B70710F00A
:1019F000A61BB70B881F991F5A95A9F7809590953C
:101A0000BC01CD010895A1E21A2EAA1BBB1BFD014A
:101A10000DC0AA1FBB1FEE1FFF1FA217B307E407CD
:101A2000F50720F0A21BB30BE40BF50B661F771F25
:101A3000881F991F1A9469F7609570958095909505
:101A40009B01AC01BD01CF010895FB01DC018D912B
:101A5000019080190110D9F3990B0895FB01DC0165
:101A600001900D920020E1F708950F931F93DF93EB
:101A7000CF93CDB7DEB72E970FB6F894DEBF0FBE6B
:101A8000CDBF0D891E8986E08C831A8309838FEF71
:101A90009FE79E838D839E01275E3F4FCE01019677
:101AA0006F89788DA9010E94660D2F813885020FFC
:101AB000131FF80110822E960FB6F894DEBF0FBEEA
:101AC000CDBFCF91DF911F910F9108952F923F923B
:101AD0004F925F926F927F928F929F92AF92BF923E
:101AE000CF92DF92EF92FF920F931F93DF93CF93EA
:101AF000CDB7DEB72B970FB6F894DEBF0FBECDBFC4
:101B00003C012B015A01FC0117821682838181FD61
:101B100003C06FEF7FEFC6C19AE0892E1E010894C3
:101B2000211C311CF3012381F20123FD859123FF48
:101B300081912F01882309F4B2C1853239F423FD44
:101B4000859123FF81912F01853229F490E0B30123
:101B50000E94820FE7CF982FFF24EE249924FFE103
:101B6000FF15D0F09B3269F09C3228F4903259F086
:101B7000933291F40EC09D3249F0903369F441E004
:101B800024C052E0F52A84E0F82A28C098E0F92A17
:101B900025C0E0E1FE2A22C0F7FC29C0892F80532E
:101BA0008A3070F4F6FE05C0989C902C1124980E93
:101BB00015C0E89CE02C1124E80EF0E2FF2A0EC0CC
:101BC0009E3229F4F6FC6BC140E4F42A07C09C362F
:101BD00019F450E8F52A02C0983649F4F20123FDC1
:101BE000959123FF91912F01992309F0B8CF892F67
:101BF0008554833018F08052833038F444E050E04C
:101C0000A40EB51E5FE359830FC0933631F09337AE
:101C100079F0933509F056C020C0F50180818983A1
:101C200042E050E0A40EB51E610101E010E012C0D8
:101C3000F501C080D180F6FC03C06FEF7FEF02C0DA
:101C4000692D70E042E050E0A40EB51EC6010E946E
:101C5000770F8C015FE7F52214C0F501C080D180B9
:101C6000F6FC03C06FEF7FEF02C0692D70E042E029
:101C700050E0A40EB51EC6010E946C0F8C0150E806
:101C8000F52AF3FE07C01AC080E290E0B3010E947B
:101C9000820FEA948E2D90E008171907A8F30EC062
:101CA000F601F7FC8591F7FE81916F0190E0B30199
:101CB0000E94820FE110EA940150104001151105B5
:101CC00079F7EAC0943611F0993669F5F7FE08C045
:101CD000F501208131814281538184E090E00AC086
:101CE000F501808191819C01442737FD4095542F57
:101CF00082E090E0A80EB91E9FE6F92257FF09C0C6
:101D000050954095309521953F4F4F4F5F4FE0E8FC
:101D1000FE2ACA01B901A1012AE030E00E94AE0FFB
:101D2000D82ED21840C0953729F41F2D1F7E2AE0E7
:101D300030E01DC01F2D197F9F3661F0903720F4D1
:101D4000983509F0ACC00FC0903739F0983709F0DA
:101D5000A6C004C028E030E00AC0106114FD146081
:101D600020E130E004C014FD166020E132E017FFEE
:101D700008C0F501608171818281938144E050E067
:101D800008C0F50180819181BC0180E090E042E0D3
:101D900050E0A40EB51EA1010E94AE0FD82ED2189D
:101DA0008FE7F82EF122F6FE0BC05EEFF522D91474
:101DB00038F4F4FE07C0F2FC05C08FEEF82202C032
:101DC0001D2D01C0192DF4FE0DC0FE01ED0DF11DFC
:101DD0008081803319F499EEF92208C01F5FF2FE6A
:101DE00005C003C08F2D867809F01F5F0F2DF3FC0F
:101DF00014C0F0FE0FC01E1510F09D2C0BC09D2CC2
:101E00009E0C911A1E2D06C080E290E0B3010E9444
:101E1000820F1F5F1E15C0F304C01E1510F4E11AD7
:101E200001C0EE2404FF0FC080E390E0B3010E94E4
:101E3000820F02FF1DC001FD03C088E790E00EC0C5
:101E400088E590E00BC0802F867891F001FF02C0FA
:101E50008BE201C080E2F7FC8DE290E0B3010E94CA
:101E6000820F06C080E390E0B3010E94820F9A9433
:101E7000D914C0F3DA94F101ED0DF11D808190E0E9
:101E8000B3010E94820FDD20A9F706C080E290E036
:101E9000B3010E94820FEA94EE20C1F743CEF30112
:101EA00066817781CB012B960FB6F894DEBF0FBE0B
:101EB000CDBFCF91DF911F910F91FF90EF90DF90F9
:101EC000CF90BF90AF909F908F907F906F905F90DA
:101ED0004F903F902F900895FC0105906150704005
:101EE0000110D8F7809590958E0F9F1F0895FC01E3
:101EF0006150704001900110D8F7809590958E0F39
:101F00009F1F08950F931F93CF93DF938C01EB01D5
:101F10008B8181FF1BC082FF0DC02E813F818C8190
:101F20009D812817390764F4E881F9810193F983C9
:101F3000E88306C0E885F985802F0995892B31F45F
:101F40008E819F8101969F838E8302C00FEF1FEFCA
:101F5000C801DF91CF911F910F910895FA01AA272F
:101F6000283051F1203181F1E8946F936E7F6E5FDC
:101F70007F4F8F4F9F4FAF4FB1E03ED0B4E03CD08A
:101F8000670F781F891F9A1FA11D680F791F8A1F6D
:101F9000911DA11D6A0F711D811D911DA11D20D0D4
:101FA00009F468943F912AE0269F11243019305D8E
:101FB0003193DEF6CF010895462F4770405D41937F
:101FC000B3E00FD0C9F7F6CF462F4F70405D4A33CC
:101FD00018F0495D31FD4052419302D0A9F7EACF94
:101FE000B4E0A6959795879577956795BA95C9F7C3
:101FF00000976105710508959B01AC010A2E0694B6
:102000005795479537952795BA95C9F7620F731F6E
:0C201000841F951FA01D0895F894FFCFB9
:10201C000D7461736B203220000D7461736B203171
:10202C0020000D6C6165657140754E694261736885
:10203C003A7E240074696D650054494D45000D00CD
:10204C00485253203D202564204D494E203D2025EB
:10205C0030326420534543203D20253033640077D3
:10206C00686F0077686F616D690057484F414D4943
:10207C00000D6C616565712009207474793120093B
:10208C002074696D65200D6C616565712009207087
:10209C00733120092074696D6520007374617400BC
:1020AC0053544154000D4350553A00250009205714
:1020BC00656C636F6D6520746F20754E694261733A
:1020CC006820656E7669726F6D656E74000D2055B3
:1020DC007365726E616D653A000D20506173737794
:1020EC006F72643A000D496E76616C696420757389
:1020FC0065726E616D65206F722070617373776F9E
:10210C007264006C616565710000006C61656571DD
:10211C00313233757365720000000075736572316E
:10212C00323300010204081020408000000100023C
:10213C000001000300010002000100040001000284
:10214C000001000300010002000100050001000273
:10215C000001000300010002000100040001000264
:10216C000001000300010002000100060001000252
:10217C000001000300010002000100040001000244
:10218C000001000300010002000100050001000233
:10219C000001000300010002000100040001000224
:1021AC000001000300010002000100070001000211
:1021BC000001000300010002000100040001000204
:1021CC0000010003000100020001000500010002F3
:1021DC0000010003000100020001000400010002E4
:1021EC0000010003000100020001000600010002D2
:1021FC0000010003000100020001000400010002C4
:10220C0000010003000100020001000500010002B2
:10221C0000010003000100020001000400010002A3
:0C222C000001000300010002000100009E
:00000001FF
